{
    "_format": "hh-sol-artifact-1",
    "contractName": "WavePortal",
    "sourceName": "contracts/WavePortal.sol",
    "abi": [
        {
            "inputs": [],
            "stateMutability": "payable",
            "type": "constructor"
        },
        {
            "anonymous": false,
            "inputs": [
                {
                    "indexed": true,
                    "internalType": "address",
                    "name": "from",
                    "type": "address"
                },
                {
                    "indexed": false,
                    "internalType": "uint256",
                    "name": "timestamp",
                    "type": "uint256"
                },
                {
                    "indexed": false,
                    "internalType": "string",
                    "name": "message",
                    "type": "string"
                }
            ],
            "name": "newWave",
            "type": "event"
        },
        {
            "inputs": [],
            "name": "getAllWaves",
            "outputs": [
                {
                    "components": [
                        {
                            "internalType": "address",
                            "name": "waver",
                            "type": "address"
                        },
                        {
                            "internalType": "string",
                            "name": "message",
                            "type": "string"
                        },
                        {
                            "internalType": "uint256",
                            "name": "timestamp",
                            "type": "uint256"
                        }
                    ],
                    "internalType": "struct WavePortal.Wave[]",
                    "name": "",
                    "type": "tuple[]"
                }
            ],
            "stateMutability": "view",
            "type": "function"
        },
        {
            "inputs": [],
            "name": "getTotalWaves",
            "outputs": [
                {
                    "internalType": "uint256",
                    "name": "",
                    "type": "uint256"
                }
            ],
            "stateMutability": "view",
            "type": "function"
        },
        {
            "inputs": [
                {
                    "internalType": "address",
                    "name": "",
                    "type": "address"
                }
            ],
            "name": "lastWavedAt",
            "outputs": [
                {
                    "internalType": "uint256",
                    "name": "",
                    "type": "uint256"
                }
            ],
            "stateMutability": "view",
            "type": "function"
        },
        {
            "inputs": [],
            "name": "totalWaves",
            "outputs": [
                {
                    "internalType": "uint256",
                    "name": "",
                    "type": "uint256"
                }
            ],
            "stateMutability": "view",
            "type": "function"
        },
        {
            "inputs": [
                {
                    "internalType": "string",
                    "name": "_message",
                    "type": "string"
                }
            ],
            "name": "wave",
            "outputs": [],
            "stateMutability": "nonpayable",
            "type": "function"
        }
    ],
    "bytecode": "0x60806040526200003360405180608001604052806044815260200162001499604491396200005b60201b620006b61760201c565b6064444262000043919062000160565b6200004f9190620001ec565b600181905550620002ec565b620000fb81604051602401620000729190620002c8565b6040516020818303038152906040527f41304fac000000000000000000000000000000000000000000000000000000007bffffffffffffffffffffffffffffffffffffffffffffffffffffffff19166020820180517bffffffffffffffffffffffffffffffffffffffffffffffffffffffff8381831617835250505050620000fe60201b60201c565b50565b60008151905060006a636f6e736f6c652e6c6f679050602083016000808483855afa5050505050565b6000819050919050565b7f4e487b7100000000000000000000000000000000000000000000000000000000600052601160045260246000fd5b60006200016d8262000127565b91506200017a8362000127565b9250827fffffffffffffffffffffffffffffffffffffffffffffffffffffffffffffffff03821115620001b257620001b162000131565b5b828201905092915050565b7f4e487b7100000000000000000000000000000000000000000000000000000000600052601260045260246000fd5b6000620001f98262000127565b9150620002068362000127565b925082620002195762000218620001bd565b5b828206905092915050565b600081519050919050565b600082825260208201905092915050565b60005b838110156200026057808201518184015260208101905062000243565b8381111562000270576000848401525b50505050565b6000601f19601f8301169050919050565b6000620002948262000224565b620002a081856200022f565b9350620002b281856020860162000240565b620002bd8162000276565b840191505092915050565b60006020820190508181036000830152620002e4818462000287565b905092915050565b61119d80620002fc6000396000f3fe608060405234801561001057600080fd5b50600436106100575760003560e01c8063291bcab31461005c578063449d46c01461007a5780639a2cdc0814610096578063a42a4663146100b4578063bd43a908146100e4575b600080fd5b610064610102565b604051610071919061096c565b60405180910390f35b610094600480360381019061008f91906109f6565b610108565b005b61009e610502565b6040516100ab919061096c565b60405180910390f35b6100ce60048036038101906100c99190610aa1565b61054d565b6040516100db919061096c565b60405180910390f35b6100ec610565565b6040516100f99190610c97565b60405180910390f35b60005481565b42610708600360003373ffffffffffffffffffffffffffffffffffffffff1673ffffffffffffffffffffffffffffffffffffffff168152602001908152602001600020546101569190610ce8565b10610196576040517f08c379a000000000000000000000000000000000000000000000000000000000815260040161018d90610d9b565b60405180910390fd5b42600360003373ffffffffffffffffffffffffffffffffffffffff1673ffffffffffffffffffffffffffffffffffffffff168152602001908152602001600020819055506000808154809291906101ec90610dbb565b91905055506102306040518060400160405280600d81526020017f576176652066726f6d2025732e000000000000000000000000000000000000008152503361074f565b600260405180606001604052803373ffffffffffffffffffffffffffffffffffffffff16815260200184848080601f016020809104026020016040519081016040528093929190818152602001838380828437600081840152601f19601f82011690508083019250505050505050815260200142815250908060018154018082558091505060019003906000526020600020906003020160009091909190915060008201518160000160006101000a81548173ffffffffffffffffffffffffffffffffffffffff021916908373ffffffffffffffffffffffffffffffffffffffff16021790555060208201518160010190805190602001906103339291906108b0565b50604082015181600201555050606460015444426103519190610ce8565b61035b9190610ce8565b6103659190610e33565b6001819055506032600154116104ac576103b46040518060400160405280600781526020017f257320776f6e21000000000000000000000000000000000000000000000000008152503361074f565b6000600a9050478111156103fd576040517f08c379a00000000000000000000000000000000000000000000000000000000081526004016103f490610ed6565b60405180910390fd5b60003373ffffffffffffffffffffffffffffffffffffffff168260405161042390610f27565b60006040518083038185875af1925050503d8060008114610460576040519150601f19603f3d011682016040523d82523d6000602084013e610465565b606091505b50509050806104a9576040517f08c379a00000000000000000000000000000000000000000000000000000000081526004016104a090610fae565b60405180910390fd5b50505b3373ffffffffffffffffffffffffffffffffffffffff167f827fc0b1433d32e3710239670a4c525416496a64d64f2374a5e4ea595c0738c64284846040516104f69392919061100a565b60405180910390a25050565b60006105456040518060400160405280601481526020017f546f74616c205761766520436f756e743a2025640000000000000000000000008152506000546107eb565b600054905090565b60036020528060005260406000206000915090505481565b60606002805480602002602001604051908101604052809291908181526020016000905b828210156106ad57838290600052602060002090600302016040518060600160405290816000820160009054906101000a900473ffffffffffffffffffffffffffffffffffffffff1673ffffffffffffffffffffffffffffffffffffffff1673ffffffffffffffffffffffffffffffffffffffff1681526020016001820180546106129061106b565b80601f016020809104026020016040519081016040528092919081815260200182805461063e9061106b565b801561068b5780601f106106605761010080835404028352916020019161068b565b820191906000526020600020905b81548152906001019060200180831161066e57829003601f168201915b5050505050815260200160028201548152505081526020019060010190610589565b50505050905090565b61074c816040516024016106ca91906110d6565b6040516020818303038152906040527f41304fac000000000000000000000000000000000000000000000000000000007bffffffffffffffffffffffffffffffffffffffffffffffffffffffff19166020820180517bffffffffffffffffffffffffffffffffffffffffffffffffffffffff8381831617835250505050610887565b50565b6107e78282604051602401610765929190611107565b6040516020818303038152906040527f319af333000000000000000000000000000000000000000000000000000000007bffffffffffffffffffffffffffffffffffffffffffffffffffffffff19166020820180517bffffffffffffffffffffffffffffffffffffffffffffffffffffffff8381831617835250505050610887565b5050565b6108838282604051602401610801929190611137565b6040516020818303038152906040527f9710a9d0000000000000000000000000000000000000000000000000000000007bffffffffffffffffffffffffffffffffffffffffffffffffffffffff19166020820180517bffffffffffffffffffffffffffffffffffffffffffffffffffffffff8381831617835250505050610887565b5050565b60008151905060006a636f6e736f6c652e6c6f679050602083016000808483855afa5050505050565b8280546108bc9061106b565b90600052602060002090601f0160209004810192826108de5760008555610925565b82601f106108f757805160ff1916838001178555610925565b82800160010185558215610925579182015b82811115610924578251825591602001919060010190610909565b5b5090506109329190610936565b5090565b5b8082111561094f576000816000905550600101610937565b5090565b6000819050919050565b61096681610953565b82525050565b6000602082019050610981600083018461095d565b92915050565b600080fd5b600080fd5b600080fd5b600080fd5b600080fd5b60008083601f8401126109b6576109b5610991565b5b8235905067ffffffffffffffff8111156109d3576109d2610996565b5b6020830191508360018202830111156109ef576109ee61099b565b5b9250929050565b60008060208385031215610a0d57610a0c610987565b5b600083013567ffffffffffffffff811115610a2b57610a2a61098c565b5b610a37858286016109a0565b92509250509250929050565b600073ffffffffffffffffffffffffffffffffffffffff82169050919050565b6000610a6e82610a43565b9050919050565b610a7e81610a63565b8114610a8957600080fd5b50565b600081359050610a9b81610a75565b92915050565b600060208284031215610ab757610ab6610987565b5b6000610ac584828501610a8c565b91505092915050565b600081519050919050565b600082825260208201905092915050565b6000819050602082019050919050565b610b0381610a63565b82525050565b600081519050919050565b600082825260208201905092915050565b60005b83811015610b43578082015181840152602081019050610b28565b83811115610b52576000848401525b50505050565b6000601f19601f8301169050919050565b6000610b7482610b09565b610b7e8185610b14565b9350610b8e818560208601610b25565b610b9781610b58565b840191505092915050565b610bab81610953565b82525050565b6000606083016000830151610bc96000860182610afa565b5060208301518482036020860152610be18282610b69565b9150506040830151610bf66040860182610ba2565b508091505092915050565b6000610c0d8383610bb1565b905092915050565b6000602082019050919050565b6000610c2d82610ace565b610c378185610ad9565b935083602082028501610c4985610aea565b8060005b85811015610c855784840389528151610c668582610c01565b9450610c7183610c15565b925060208a01995050600181019050610c4d565b50829750879550505050505092915050565b60006020820190508181036000830152610cb18184610c22565b905092915050565b7f4e487b7100000000000000000000000000000000000000000000000000000000600052601160045260246000fd5b6000610cf382610953565b9150610cfe83610953565b9250827fffffffffffffffffffffffffffffffffffffffffffffffffffffffffffffffff03821115610d3357610d32610cb9565b5b828201905092915050565b600082825260208201905092915050565b7f57616974203330206d696e757465730000000000000000000000000000000000600082015250565b6000610d85600f83610d3e565b9150610d9082610d4f565b602082019050919050565b60006020820190508181036000830152610db481610d78565b9050919050565b6000610dc682610953565b91507fffffffffffffffffffffffffffffffffffffffffffffffffffffffffffffffff821415610df957610df8610cb9565b5b600182019050919050565b7f4e487b7100000000000000000000000000000000000000000000000000000000600052601260045260246000fd5b6000610e3e82610953565b9150610e4983610953565b925082610e5957610e58610e04565b5b828206905092915050565b7f446f6e2774206861766520656e6f756768206d6f6e657920666f72207072697a60008201527f652e000000000000000000000000000000000000000000000000000000000000602082015250565b6000610ec0602283610d3e565b9150610ecb82610e64565b604082019050919050565b60006020820190508181036000830152610eef81610eb3565b9050919050565b600081905092915050565b50565b6000610f11600083610ef6565b9150610f1c82610f01565b600082019050919050565b6000610f3282610f04565b9150819050919050565b7f4661696c656420746f207472616e73666572206d6f6e657920666f726d20636f60008201527f6e74726163742e00000000000000000000000000000000000000000000000000602082015250565b6000610f98602783610d3e565b9150610fa382610f3c565b604082019050919050565b60006020820190508181036000830152610fc781610f8b565b9050919050565b82818337600083830152505050565b6000610fe98385610d3e565b9350610ff6838584610fce565b610fff83610b58565b840190509392505050565b600060408201905061101f600083018661095d565b8181036020830152611032818486610fdd565b9050949350505050565b7f4e487b7100000000000000000000000000000000000000000000000000000000600052602260045260246000fd5b6000600282049050600182168061108357607f821691505b602082108114156110975761109661103c565b5b50919050565b60006110a882610b09565b6110b28185610d3e565b93506110c2818560208601610b25565b6110cb81610b58565b840191505092915050565b600060208201905081810360008301526110f0818461109d565b905092915050565b61110181610a63565b82525050565b60006040820190508181036000830152611121818561109d565b905061113060208301846110f8565b9392505050565b60006040820190508181036000830152611151818561109d565b9050611160602083018461095d565b939250505056fea264697066735822122032c4347e76c380d2cf7e72207b895f0406545d976dd94cad0f2bc86c166845eb64736f6c6343000809003348656c6c6f206920616d20636f6e747261637420616e64206920616d20736d61727420616e642070656f706c652063616c6c206d6520736d61727420636f6e7472616374",
    "linkReferences": {},
    "deployedLinkReferences": {}
}